:020000040800F2
:1000000000040020490100085101000853010008C4
:1000100055010008570100085901000800000000C0
:100020000000000000000000000000005B0100086C
:100030005D010008000000005F0100086101000888
:100040006301000863010008630100086301000800
:1000500063010008630100086301000863010008F0
:1000600063010008630100086301000863010008E0
:1000700063010008630100086301000863010008D0
:1000800063010008630100086301000863010008C0
:1000900063010008630100086301000863010008B0
:1000A00063010008630100086301000863010008A0
:1000B0006301000863010008630100086301000890
:1000C0006301000863010008630100086301000880
:1000D0006301000863010008630100086301000870
:1000E0006301000863010008630100086301000860
:1000F0006301000863010008630100086301000850
:10010000630100086301000863010008630100083F
:10011000630100086301000863010008630100082F
:10012000630100086301000863010008630100081F
:10013000DFF810D000F01AF800480047210400084A
:10014000AFF30080000400200648804706480047BF
:10015000FEE7FEE7FEE7FEE7FEE7FEE7FEE7FEE777
:10016000FEE7FEE77902000831010008064C074D62
:1001700006E0E06840F0010394E807009847103477
:10018000AC42F6D3FFF7D8FF300400084004000863
:1001900010B500F001F810BD0CB5002001900090E2
:1001A0003348006840F480303149086000BF30486F
:1001B000006800F4003000900198401C0190009805
:1001C00018B90198B0F5A06FF1D12948006800F482
:1001D000003010B10120009001E000200090009854
:1001E000012843D12348006840F0100021490860ED
:1001F0000846006820F0030008600846006840F0E8
:10020000020008601A48406819494860084640687A
:1002100048600846406840F480604860084640688E
:1002200020F47C1048600846406840F4E8104860BC
:100230000846006840F08070086000BF0C48006805
:1002400000F000700028F9D00948406820F0030051
:10025000074948600846406840F00200486000BF17
:100260000348406800F00C000828F9D10CBD0000DC
:10027000001002400020024010B51348006840F012
:1002800001001149086008464068104908400E49BD
:100290004860084600680E4908400B490860084657
:1002A000006820F4802008600846406820F4FE00C2
:1002B00048604FF41F008860FFF76AFF4FF000604E
:1002C0000449086010BD0000001002400000FFF863
:1002D000FFFFF6FE08ED00E002E008C8121F08C1AB
:1002E000002AFAD170477047002001E001C1121FB7
:1002F000002AFBD1704700000C48806940F00800DC
:100300000A4988610A48006820F00F00084908601F
:100310000846006840F0030008600548083000689F
:1003200020F48070024908310860704700100240D4
:10033000040C01401948806940F0010017498861A8
:100340000846806940F0400088611548006820F048
:100350000F00134908600846006840F00800086074
:1003600010480068104908400E49086008460068B7
:100370000E4908430B49086009480C30006820F01A
:10038000010007490C31086006480C30006840F055
:100390001C0004490C310860704700000010024046
:1003A000102F0040103F0040FF00F0FF00880800C1
:1003B0001848806940F0080016498861084680693D
:1003C00040F0400088611448006820F47000124931
:1003D00008600846006840F4401008600F48006854
:1003E00020F470000D4908600846006840F4401091
:1003F000086009480C30006840F0200006490C31C4
:10040000086006480C30006840F0200003490C31B9
:100410000860704700100240000C014000180140C5
:10042000FFF7C6FFFFF768FFFFF784FF00BFFEE797
:10043000400400080000002000040000E80200085A
:0400000508000131BD
:00000001FF
